{
  "_format": "hh-sol-artifact-1",
  "contractName": "Payment",
  "sourceName": "contracts/Payment.sol",
  "abi": [
    {
      "anonymous": false,
      "inputs": [
        {
          "indexed": true,
          "internalType": "address",
          "name": "previousOwner",
          "type": "address"
        },
        {
          "indexed": true,
          "internalType": "address",
          "name": "newOwner",
          "type": "address"
        }
      ],
      "name": "OwnershipTransferred",
      "type": "event"
    },
    {
      "anonymous": false,
      "inputs": [
        {
          "indexed": false,
          "internalType": "uint256",
          "name": "itemId",
          "type": "uint256"
        },
        {
          "indexed": false,
          "internalType": "address",
          "name": "buyer",
          "type": "address"
        },
        {
          "indexed": false,
          "internalType": "uint256",
          "name": "packageId",
          "type": "uint256"
        },
        {
          "indexed": false,
          "internalType": "uint256",
          "name": "expiry",
          "type": "uint256"
        },
        {
          "indexed": false,
          "internalType": "uint256",
          "name": "price",
          "type": "uint256"
        }
      ],
      "name": "SubscriptionBought",
      "type": "event"
    },
    {
      "inputs": [
        {
          "internalType": "uint256",
          "name": "_packageId",
          "type": "uint256"
        },
        {
          "internalType": "uint256",
          "name": "_duration",
          "type": "uint256"
        },
        {
          "internalType": "bytes",
          "name": "_signature",
          "type": "bytes"
        }
      ],
      "name": "buySubscription",
      "outputs": [],
      "stateMutability": "payable",
      "type": "function"
    },
    {
      "inputs": [],
      "name": "getBalance",
      "outputs": [
        {
          "internalType": "uint256",
          "name": "",
          "type": "uint256"
        }
      ],
      "stateMutability": "view",
      "type": "function"
    },
    {
      "inputs": [
        {
          "internalType": "address",
          "name": "_payee",
          "type": "address"
        },
        {
          "internalType": "address",
          "name": "_signerAddress",
          "type": "address"
        }
      ],
      "name": "initialize",
      "outputs": [],
      "stateMutability": "nonpayable",
      "type": "function"
    },
    {
      "inputs": [],
      "name": "owner",
      "outputs": [
        {
          "internalType": "address",
          "name": "",
          "type": "address"
        }
      ],
      "stateMutability": "view",
      "type": "function"
    },
    {
      "inputs": [
        {
          "internalType": "uint256",
          "name": "",
          "type": "uint256"
        }
      ],
      "name": "ownerOf",
      "outputs": [
        {
          "internalType": "address",
          "name": "",
          "type": "address"
        }
      ],
      "stateMutability": "view",
      "type": "function"
    },
    {
      "inputs": [],
      "name": "renounceOwnership",
      "outputs": [],
      "stateMutability": "nonpayable",
      "type": "function"
    },
    {
      "inputs": [
        {
          "internalType": "uint256",
          "name": "",
          "type": "uint256"
        }
      ],
      "name": "subscriptions",
      "outputs": [
        {
          "internalType": "uint256",
          "name": "packageId",
          "type": "uint256"
        },
        {
          "internalType": "uint256",
          "name": "expiry",
          "type": "uint256"
        },
        {
          "internalType": "uint256",
          "name": "price",
          "type": "uint256"
        }
      ],
      "stateMutability": "view",
      "type": "function"
    },
    {
      "inputs": [
        {
          "internalType": "address",
          "name": "newOwner",
          "type": "address"
        }
      ],
      "name": "transferOwnership",
      "outputs": [],
      "stateMutability": "nonpayable",
      "type": "function"
    },
    {
      "inputs": [],
      "name": "withdraw",
      "outputs": [],
      "stateMutability": "payable",
      "type": "function"
    }
  ],
  "bytecode": "0x608060405234801561001057600080fd5b5061192f806100206000396000f3fe6080604052600436106100865760003560e01c80636352211e116100595780636352211e14610128578063715018a6146101655780638312bb3d1461017c5780638da5cb5b14610198578063f2fde38b146101c357610086565b806312065fe01461008b5780632d5bbf60146100b65780633ccfd60b146100f5578063485cc955146100ff575b600080fd5b34801561009757600080fd5b506100a06101ec565b6040516100ad919061148b565b60405180910390f35b3480156100c257600080fd5b506100dd60048036038101906100d8919061109f565b6101f4565b6040516100ec939291906114f9565b60405180910390f35b6100fd61021e565b005b34801561010b57600080fd5b5061012660048036038101906101219190611063565b6102ea565b005b34801561013457600080fd5b5061014f600480360381019061014a919061109f565b61042a565b60405161015c919061130b565b60405180910390f35b34801561017157600080fd5b5061017a61045d565b005b610196600480360381019061019191906110c8565b6104e5565b005b3480156101a457600080fd5b506101ad6106c0565b6040516101ba919061130b565b60405180910390f35b3480156101cf57600080fd5b506101ea60048036038101906101e5919061103a565b6106ea565b005b600047905090565b60656020528060005260406000206000915090508060000154908060010154908060020154905083565b6102266107e2565b73ffffffffffffffffffffffffffffffffffffffff166102446106c0565b73ffffffffffffffffffffffffffffffffffffffff161461029a576040517f08c379a00000000000000000000000000000000000000000000000000000000081526004016102919061144b565b60405180910390fd5b3373ffffffffffffffffffffffffffffffffffffffff166108fc6102bc6101ec565b9081150290604051600060405180830381858888f193505050501580156102e7573d6000803e3d6000fd5b50565b600060019054906101000a900460ff166103125760008054906101000a900460ff161561031b565b61031a6107ea565b5b61035a576040517f08c379a00000000000000000000000000000000000000000000000000000000081526004016103519061140b565b60405180910390fd5b60008060019054906101000a900460ff1615905080156103aa576001600060016101000a81548160ff02191690831515021790555060016000806101000a81548160ff0219169083151502179055505b6103b26107fb565b6103ba61084c565b6103c3836108ad565b81606760006101000a81548173ffffffffffffffffffffffffffffffffffffffff021916908373ffffffffffffffffffffffffffffffffffffffff16021790555080156104255760008060016101000a81548160ff0219169083151502179055505b505050565b60666020528060005260406000206000915054906101000a900473ffffffffffffffffffffffffffffffffffffffff1681565b6104656107e2565b73ffffffffffffffffffffffffffffffffffffffff166104836106c0565b73ffffffffffffffffffffffffffffffffffffffff16146104d9576040517f08c379a00000000000000000000000000000000000000000000000000000000081526004016104d09061144b565b60405180910390fd5b6104e360006108ad565b565b6000848434466040516020016104fe9493929190611530565b60405160208183030381529060405280519060200120905061056483838080601f016020809104026020016040519081016040528093929190818152602001838380828437600081840152601f19601f8201169050808301925050505050505082610973565b6105a3576040517f08c379a000000000000000000000000000000000000000000000000000000000815260040161059a9061138b565b60405180910390fd5b6105ad60686109e8565b600084426105bb9190611591565b9050604051806060016040528087815260200182815260200134815250606560006105e660686109fe565b8152602001908152602001600020600082015181600001556020820151816001015560408201518160020155905050336066600061062460686109fe565b815260200190815260200160002060006101000a81548173ffffffffffffffffffffffffffffffffffffffff021916908373ffffffffffffffffffffffffffffffffffffffff1602179055507f0b0bf13d8d425ed53ea577e31c49336341c336205506693420b749c264f4bb3f61069b60686109fe565b338884346040516106b09594939291906114a6565b60405180910390a1505050505050565b6000603360009054906101000a900473ffffffffffffffffffffffffffffffffffffffff16905090565b6106f26107e2565b73ffffffffffffffffffffffffffffffffffffffff166107106106c0565b73ffffffffffffffffffffffffffffffffffffffff1614610766576040517f08c379a000000000000000000000000000000000000000000000000000000000815260040161075d9061144b565b60405180910390fd5b600073ffffffffffffffffffffffffffffffffffffffff168173ffffffffffffffffffffffffffffffffffffffff1614156107d6576040517f08c379a00000000000000000000000000000000000000000000000000000000081526004016107cd906113cb565b60405180910390fd5b6107df816108ad565b50565b600033905090565b60006107f530610a0c565b15905090565b600060019054906101000a900460ff1661084a576040517f08c379a00000000000000000000000000000000000000000000000000000000081526004016108419061146b565b60405180910390fd5b565b600060019054906101000a900460ff1661089b576040517f08c379a00000000000000000000000000000000000000000000000000000000081526004016108929061146b565b60405180910390fd5b6108ab6108a66107e2565b6108ad565b565b6000603360009054906101000a900473ffffffffffffffffffffffffffffffffffffffff16905081603360006101000a81548173ffffffffffffffffffffffffffffffffffffffff021916908373ffffffffffffffffffffffffffffffffffffffff1602179055508173ffffffffffffffffffffffffffffffffffffffff168173ffffffffffffffffffffffffffffffffffffffff167f8be0079c531659141344cd1fd0a4f28419497f9722a3daafe3b4186f6b6457e060405160405180910390a35050565b6000606760009054906101000a900473ffffffffffffffffffffffffffffffffffffffff1673ffffffffffffffffffffffffffffffffffffffff166109c9846109bb85610a2f565b610a5f90919063ffffffff16565b73ffffffffffffffffffffffffffffffffffffffff1614905092915050565b6001816000016000828254019250508190555050565b600081600001549050919050565b6000808273ffffffffffffffffffffffffffffffffffffffff163b119050919050565b600081604051602001610a4291906112e5565b604051602081830303815290604052805190602001209050919050565b6000806000610a6e8585610a86565b91509150610a7b81610b09565b819250505092915050565b600080604183511415610ac85760008060006020860151925060408601519150606086015160001a9050610abc87828585610e5a565b94509450505050610b02565b604083511415610af9576000806020850151915060408501519050610aee868383610f67565b935093505050610b02565b60006002915091505b9250929050565b60006004811115610b43577f4e487b7100000000000000000000000000000000000000000000000000000000600052602160045260246000fd5b816004811115610b7c577f4e487b7100000000000000000000000000000000000000000000000000000000600052602160045260246000fd5b1415610b8757610e57565b60016004811115610bc1577f4e487b7100000000000000000000000000000000000000000000000000000000600052602160045260246000fd5b816004811115610bfa577f4e487b7100000000000000000000000000000000000000000000000000000000600052602160045260246000fd5b1415610c3b576040517f08c379a0000000000000000000000000000000000000000000000000000000008152600401610c329061136b565b60405180910390fd5b60026004811115610c75577f4e487b7100000000000000000000000000000000000000000000000000000000600052602160045260246000fd5b816004811115610cae577f4e487b7100000000000000000000000000000000000000000000000000000000600052602160045260246000fd5b1415610cef576040517f08c379a0000000000000000000000000000000000000000000000000000000008152600401610ce6906113ab565b60405180910390fd5b60036004811115610d29577f4e487b7100000000000000000000000000000000000000000000000000000000600052602160045260246000fd5b816004811115610d62577f4e487b7100000000000000000000000000000000000000000000000000000000600052602160045260246000fd5b1415610da3576040517f08c379a0000000000000000000000000000000000000000000000000000000008152600401610d9a906113eb565b60405180910390fd5b600480811115610ddc577f4e487b7100000000000000000000000000000000000000000000000000000000600052602160045260246000fd5b816004811115610e15577f4e487b7100000000000000000000000000000000000000000000000000000000600052602160045260246000fd5b1415610e56576040517f08c379a0000000000000000000000000000000000000000000000000000000008152600401610e4d9061142b565b60405180910390fd5b5b50565b6000807f7fffffffffffffffffffffffffffffff5d576e7357a4501ddfe92f46681b20a08360001c1115610e95576000600391509150610f5e565b601b8560ff1614158015610ead5750601c8560ff1614155b15610ebf576000600491509150610f5e565b600060018787878760405160008152602001604052604051610ee49493929190611326565b6020604051602081039080840390855afa158015610f06573d6000803e3d6000fd5b505050602060405103519050600073ffffffffffffffffffffffffffffffffffffffff168173ffffffffffffffffffffffffffffffffffffffff161415610f5557600060019250925050610f5e565b80600092509250505b94509492505050565b60008060007f7fffffffffffffffffffffffffffffffffffffffffffffffffffffffffffffff60001b841690506000601b60ff8660001c901c610faa9190611591565b9050610fb887828885610e5a565b935093505050935093915050565b600081359050610fd5816118cb565b92915050565b60008083601f840112610fed57600080fd5b8235905067ffffffffffffffff81111561100657600080fd5b60208301915083600182028301111561101e57600080fd5b9250929050565b600081359050611034816118e2565b92915050565b60006020828403121561104c57600080fd5b600061105a84828501610fc6565b91505092915050565b6000806040838503121561107657600080fd5b600061108485828601610fc6565b925050602061109585828601610fc6565b9150509250929050565b6000602082840312156110b157600080fd5b60006110bf84828501611025565b91505092915050565b600080600080606085870312156110de57600080fd5b60006110ec87828801611025565b94505060206110fd87828801611025565b935050604085013567ffffffffffffffff81111561111a57600080fd5b61112687828801610fdb565b925092505092959194509250565b61113d816115e7565b82525050565b61114c816115f9565b82525050565b61116361115e826115f9565b61163a565b82525050565b6000611176601883611575565b915061118182611673565b602082019050919050565b6000611199601183611575565b91506111a48261169c565b602082019050919050565b60006111bc601f83611575565b91506111c7826116c5565b602082019050919050565b60006111df601c83611586565b91506111ea826116ee565b601c82019050919050565b6000611202602683611575565b915061120d82611717565b604082019050919050565b6000611225602283611575565b915061123082611766565b604082019050919050565b6000611248602e83611575565b9150611253826117b5565b604082019050919050565b600061126b602283611575565b915061127682611804565b604082019050919050565b600061128e602083611575565b915061129982611853565b602082019050919050565b60006112b1602b83611575565b91506112bc8261187c565b604082019050919050565b6112d081611623565b82525050565b6112df8161162d565b82525050565b60006112f0826111d2565b91506112fc8284611152565b60208201915081905092915050565b60006020820190506113206000830184611134565b92915050565b600060808201905061133b6000830187611143565b61134860208301866112d6565b6113556040830185611143565b6113626060830184611143565b95945050505050565b6000602082019050818103600083015261138481611169565b9050919050565b600060208201905081810360008301526113a48161118c565b9050919050565b600060208201905081810360008301526113c4816111af565b9050919050565b600060208201905081810360008301526113e4816111f5565b9050919050565b6000602082019050818103600083015261140481611218565b9050919050565b600060208201905081810360008301526114248161123b565b9050919050565b600060208201905081810360008301526114448161125e565b9050919050565b6000602082019050818103600083015261146481611281565b9050919050565b60006020820190508181036000830152611484816112a4565b9050919050565b60006020820190506114a060008301846112c7565b92915050565b600060a0820190506114bb60008301886112c7565b6114c86020830187611134565b6114d560408301866112c7565b6114e260608301856112c7565b6114ef60808301846112c7565b9695505050505050565b600060608201905061150e60008301866112c7565b61151b60208301856112c7565b61152860408301846112c7565b949350505050565b600060808201905061154560008301876112c7565b61155260208301866112c7565b61155f60408301856112c7565b61156c60608301846112c7565b95945050505050565b600082825260208201905092915050565b600081905092915050565b600061159c82611623565b91506115a783611623565b9250827fffffffffffffffffffffffffffffffffffffffffffffffffffffffffffffffff038211156115dc576115db611644565b5b828201905092915050565b60006115f282611603565b9050919050565b6000819050919050565b600073ffffffffffffffffffffffffffffffffffffffff82169050919050565b6000819050919050565b600060ff82169050919050565b6000819050919050565b7f4e487b7100000000000000000000000000000000000000000000000000000000600052601160045260246000fd5b7f45434453413a20696e76616c6964207369676e61747572650000000000000000600082015250565b7f696e76616c6964207369676e6174757265000000000000000000000000000000600082015250565b7f45434453413a20696e76616c6964207369676e6174757265206c656e67746800600082015250565b7f19457468657265756d205369676e6564204d6573736167653a0a333200000000600082015250565b7f4f776e61626c653a206e6577206f776e657220697320746865207a65726f206160008201527f6464726573730000000000000000000000000000000000000000000000000000602082015250565b7f45434453413a20696e76616c6964207369676e6174757265202773272076616c60008201527f7565000000000000000000000000000000000000000000000000000000000000602082015250565b7f496e697469616c697a61626c653a20636f6e747261637420697320616c72656160008201527f647920696e697469616c697a6564000000000000000000000000000000000000602082015250565b7f45434453413a20696e76616c6964207369676e6174757265202776272076616c60008201527f7565000000000000000000000000000000000000000000000000000000000000602082015250565b7f4f776e61626c653a2063616c6c6572206973206e6f7420746865206f776e6572600082015250565b7f496e697469616c697a61626c653a20636f6e7472616374206973206e6f74206960008201527f6e697469616c697a696e67000000000000000000000000000000000000000000602082015250565b6118d4816115e7565b81146118df57600080fd5b50565b6118eb81611623565b81146118f657600080fd5b5056fea2646970667358221220cbc043ff646aea8ee2c0e4f54caae64c5909cdef8f32b3574ff0eb29c03615b264736f6c63430008040033",
  "linkReferences": {},
  "deployedLinkReferences": {}
}